:0E00000075890112009612006C1200547406ED
:0E000E0012006090009D1200217444120060E8
:0E001C0012002180FE740093A3B5240280051B
:10002A0012004A80F222D28212003BC2821200845B
:10003A0022FE54F053800F4280EE540FF5A0EE22B8
:10004A00C281D282D28012003022C281D282C28080
:0E005A00740112003022C281D282C280248042
:0F00680012003022C281D282C28074381200305E
:0F007700C280740E120030740612003022800016
:10008600758C6C758A00D28C308DFDC28DC28C2227
:100096007D08120084DDFB4D4F444F243820424931
:0300A6005453248C
:00000001FF
