:0E0000007589011200AF1200751200557406CA
:0E000E001200659000B61200217444120065C5
:0E001C0012002180FE740093A3B5240280051B
:10002A0012004780F222FE54F053800F4580F5807B
:0F003A00EE22D282120030C28212009D22C281B9
:10004900D282D28012003CC412003C22C281D282E8
:10005900C280740112003CC412003C22C281D282C7
:10006900C280248012003CC412003C22C281D28288
:0F007900C280742812003CC412003CD282C280A4
:10008800740E12003CC412003CC280740612003C7C
:0F009800C412003C228000758C6C758A00D28CDB
:1000A700308DFDC28DC28C227D0812009DDDFB4D77
:0B00B7004F444F24342042495453248E
:00000001FF
